:020000040800F2
:1000000000500020F50400084505000845050008DB
:1000100045050008450500084505000800000000EA
:10002000000000000000000000000000450500087E
:1000300045050008000000004505000845050008CA
:100040004505000845050008450500084505000868
:100050004505000845050008450500084505000858
:100060004505000845050008450500084505000848
:100070004505000845050008450500084505000838
:100080004505000845050008450500084505000828
:100090004505000845050008450500084505000818
:1000A0004505000845050008450500084505000808
:1000B00045050008450500084505000845050008F8
:1000C00045050008450500084505000845050008E8
:1000D00045050008450500084505000845050008D8
:1000E000450500084505000800000000450500081A
:1000F00045050008450500084505000845050008B8
:1001000045050008450500084505000845050008A7
:100110004505000845050008450500084505000897
:100120004505000845050008450500084505000887
:1001300010B5054C237833B9044B13B10448AFF321
:1001400000800123237010BD00000020000000008B
:100150009005000808B5034B1BB103490348AFF3F2
:10016000008008BD00000000040000209005000889
:1001700080B500AF00F060F90421022000F078F9AA
:1001800002220D21032000F009F801220D21032095
:1001900000F0D8F80023184680BD000080B483B07A
:1001A00000AF0346FB710B46BB7113467B71FB79B5
:1001B000022B00F2B680BB790F2B00F2B2807B7964
:1001C0000F2B00F2AE80BB79072B52D8FB79032BA3
:1001D00037D0032B00F3A580012B02D0022B18D0BF
:1001E0009FE0524B1B68BA7992000F2101FA02F28C
:1001F000D24311464D4A0B4013604C4B1B68797932
:10020000BA79920001FA02F21146484A0B43136090
:1002100087E0474B1B68BA7992000F2101FA02F27E
:10022000D2431146424A0B401360414B1B68797917
:10023000BA79920001FA02F211463D4A0B4313606B
:100240006FE03C4B1B68BA7992000F2101FA02F271
:10025000D2431146374A0B401360364B1B687979FD
:10026000BA79920001FA02F21146324A0B43136046
:1002700057E0FB790F2B54D8BB79083BBB71FB7956
:10028000032B36D0032B4CDC012B02D0022B18D0D1
:1002900047E0294B1B68BA7992000F2101FA02F25C
:1002A000D2431146244A0B401360234B1B687979D3
:1002B000BA79920001FA02F211461F4A0B43136009
:1002C0002FE01E4B1B68BA7992000F2101FA02F24F
:1002D000D2431146194A0B401360184B1B687979B9
:1002E000BA79920001FA02F21146144A0B431360E4
:1002F00017E0134B1B68BA7992000F2101FA02F242
:10030000D24311460E4A0B4013600D4B1B6879799E
:10031000BA79920001FA02F21146094A0B431360BE
:1003200000BF00BF0C37BD4680BC704700080140CD
:10033000000C01400010014004080140040C014081
:100340000410014080B483B000AF0346FB710B463C
:10035000BB7113467B71FB79022B61D8BB790F2BE4
:100360005ED87B79002B2DD1FB79032B1ED0032B7C
:1003700056DC012B02D0022B0CD051E02B4B1B681A
:10038000BA79012101FA02F2D2431146274A0B4001
:10039000136045E0264B1B68BA79012101FA02F28D
:1003A000D2431146224A0B40136039E0214B1B68AF
:1003B000BA79012101FA02F2D24311461D4A0B40DB
:1003C00013602DE07B79012B2AD1FB79032B1CD004
:1003D000032B25DC012B02D0022B0BD020E0134B8A
:1003E0001B68BA79012101FA02F211460F4A0B4348
:1003F000136015E00E4B1B68BA79012101FA02F275
:1004000011460B4A0B4313600AE00A4B1B68BA798A
:10041000012101FA02F21146064A0B43136000BFA4
:1004200000BF0C37BD4680BC704700BF0C080140C0
:100430000C0C01400C10014080B400AF0A4B1B684B
:10044000094A43F001031360084B1B68074A23F075
:1004500001031360054B1B68044A23F00203136079
:1004600000BFBD4680BC704700100240041002402F
:1004700080B483B000AF03460A46FB711346BB71DC
:10048000BB791F2B2AD8FB79022B1CD0022B25DC31
:10049000002B02D0012B0BD020E0134B1B68BA7944
:1004A000012101FA02F211460F4A0B43136015E0D5
:1004B0000E4B1B68BA79012101FA02F211460B4A70
:1004C0000B4313600AE00A4B1B68BA79012101FA59
:1004D00002F21146064A0B43136000BF00BF0C37FF
:1004E000BD4680BC704700BF141002401C10024083
:1004F000181002400D488546AFF300800C480D49A6
:100500000D4A002302E0D458C4500433C4188C426E
:10051000F9D30A4A0A4C002301E013600432A242D4
:10052000FBD300F011F8FFF723FEFEE70050002098
:100530000000002000000020B0050008000000209E
:100540001C000020FEE7000070B500260C4D0D4C8D
:10055000641BA410A64209D100F01AF800260A4D27
:100560000A4C641BA410A64205D170BD55F8043B8B
:1005700098470136EEE755F8043B98470136F2E715
:10058000A8050008A8050008A8050008AC05000893
:10059000F8B500BFF8BC08BC9E467047F8B500BF70
:0805A000F8BC08BC9E46704740
:0405A80055010008F1
:0405AC003101000811
:04000005080004F5F6
:00000001FF
